:060000000A128A110C280F
:10000800FE00030EF2000A08F3000A128A11832B7D
:100018000A128A11BF2BF401A91F1928A809A909D6
:10002800A80A0319A90AF401F40A2808A000290853
:10003800A1008E30A201A3007408A40001212008A9
:10004800A8002108A9002208AA0008002E08B1006B
:100058002F08B2003008B3000310320D330DB8007A
:10006800B808031D3B28AB01AC01AD0108002B0803
:10007800B1002C08B2002D08B3000310320D330D67
:10008800B900B908031D4C28AB01AC01AD0108004B
:100098008930B501B601B7013907B100B802300897
:1000A800B9002D08B9068030B9051830AF17B0016E
:1000B800AC17AD01B4000310B50DB60DB70D2D0882
:1000C8003002031D6D282C082F02031D6D282B08F4
:1000D8002E02031C7B282B08AE022C08031C2C0FB5
:1000E800AF022D08031C2D0AB00235140310AE0D03
:1000F800AF0DB00DB40B5F283508A0003608A1007D
:100108003708A2003808A3003908A40001212008F4
:10011800AB002108AC002208AD0008002808AE009A
:100128002908AF002A08B00003102F0D300DB100C8
:10013800B108031DA328A801A901AA0108002B08DA
:10014800AE002C08AF002D08B00003102F0D300DA5
:10015800B600B608031DB428A801A901AA01080021
:1001680036087B3EB1072A08B6002D08B60680304F
:10017800B6050730A917AC17AD01B201B301B40138
:10018800B500281CCF282B083F210A128A11031812
:100198002D0A031DB4070310AA0CA90CA80C031000
:1001A800AB0DAC0DAD0DB50BC5280930B500281C3D
:1001B800E5282B083F210A128A1103182D0A031D6E
:1001C800B4070310AA0CA90CA80C0310B40CB30CA8
:1001D800B20CB50BDB283208A0003308A1003408A4
:1001E800A2003108A3003608A40001212008A800B5
:1001F8002108A9002208AA000800230803190929D0
:10020800220821042004031D1229A001A101A20132
:100218000800A30A0310A20CA10CA00CFE302205B2
:10022800031921290D29A30AA00A0319A10A0319F0
:10023800A20A0310A20CA10CA00CFF30220503197E
:100248002B291729A3030310A00DA10DA20DA11F8F
:100258002629231CA1130310A30C2308A700A60119
:10026800A5012508A0042608A1042708A20424083B
:10027800031DA2170800B2072C08031103182C0A43
:10028800031DB3072D08031108008B170B178316DE
:100298000C17870188010A128A1161230A128A1130
:1002A80080300A128A116F230A128A110C30A100B9
:1002B80001300A128A113B230A128A1141309F0029
:1002C8008E3083169F00831234301F15BB00F13027
:1002D800BA00BA0B6D29BB0B6D297229F230831253
:1002E8000313AB000230AC004030AD004308A90056
:1002F8004208A8000A128A110F200A128A11280837
:10030800AE002908AF002A08B0000A128A112A2074
:100318000A128A112B08BC002C08BD002D08BE004B
:10032800C830A801A9004230AA003C08AB003D082B
:10033800AC003E08AD000A128A1192200A128A11F6
:100348002808BF002908C0002A08C100C0300A12C6
:100358008A116F230A128A110A30AD00AE013F08D4
:10036800A0004008A1004108A2000A128A115722E1
:100378000A128A112108B0002008AF000A128A1157
:10038800B9220A128A112E08F7002D08F6000A3041
:10039800AD00AE013F08A0004008A1004108A2003E
:1003A8000A128A1157220A128A112108B00020085D
:1003B800AF000A128A11FE220A128A112E08C500FD
:1003C8002D08C4000A30AD00AE017708B0007608E9
:1003D800AF000A128A11FE220A128A112E08C700DB
:1003E8002D08C6000A30AD00AE017708B0007608C7
:1003F800AF000A128A11B9220A128A112E08F900CE
:100408002D08F8000A30AD00AE017908B000780870
:10041800AF000A128A11FE220A128A112E08C90098
:100428002D08C8000A30AD00AE017908B000780880
:10043800AF000A128A11B9220A128A112E08CB00BB
:100448002D08CA00C0300A128A116F230A128A11B5
:100458004A08303E0A128A114E230A128A114808A5
:10046800303E0A128A114E230A128A112E300A12BD
:100478008A114E230A128A114608303E0A128A113E
:100488004E230A128A114408303E0A128A114E235A
:100498000A128A110830A1000E300A128A113B2371
:1004A8000A128A116729B2220A128A110310250D2D
:1004B800260DAC00AC08031D662AA001A101A2010B
:1004C800A3010800B2220A128A1117300310A60CE1
:1004D800A50CA40CFF3E031D6A2A2408A700A11737
:1004E800A2012008A8002108A9002208AA008E302D
:1004F800AB01AC02AC1F8D2A2C08803A8F3E031C3E
:10050800612A0310AB0CAA0CA90CA80CAC0F852A05
:100518009B2A18302C020318612AAC0803199B2A5D
:100528000310A80DA90DAA0DAB0DAC03912A27083D
:100538000319A92AA809A909AA09AB09A80A03192C
:10054800A90A0319AA0A0319AB0A2B08A3002A0847
:10055800A2002908A1002808A00008002008A4007B
:100568002108A5002208A6000800B201AE1FC32A70
:10057800AD09AE09AD0A0319AE0AB201B20AB01F3D
:10058800CC2AAF09B009AF0A0319B00A0130B20684
:10059800B301B4012E082D040319F12AB101B10ADF
:1005A800AE1BDA2A0310AD0DAE0DD32A0310B30D1E
:1005B800B40D2E083002031DE32A2D082F02031C58
:1005C800ED2A2D08AF022E08031CB003B002331425
:1005D8000310AE0CAD0CB10BDA2A32080319F92A54
:1005E800B309B409B30A0319B40A3408AE003308CE
:1005F800AD000800F501B01F082BAF09B009AF0A1C
:100608000319B00AF501F50AAE1F0F2BAD09AE09A3
:10061800AD0A0319AE0A2E082D0403192E2BF40176
:10062800F40AAE1B1B2B0310AD0DAE0D142B2E08B8
:100638003002031D212B2D082F02031C2A2B2D0805
:10064800AF022E08031CB003B0020310AE0CAD0CB1
:10065800F40B1B2B75080319362BAF09B009AF0A29
:100668000319B00A3008AE002F08AD000800A20038
:10067800A301210823020318080023082207840085
:100688000A128A11A3230A128A114E230A128A1106
:10069800A30A3D2BA00020088700343008148810D6
:1006A8000815F500F130F400F40B582BF50B582B16
:1006B8005D2B831203130811080038306F230A12C8
:1006C8008A1106306F230A128A110C306F230A121E
:1006D8008A1101306F2B8312A00020088700343064
:1006E800081088100815F500F130F400F40B7A2B87
:1006F800F50B7A2B7F2B8312031308110800831242
:1007080003130C1F9C2B3430F100F130F000F00B78
:100718008B2BF10B8B2B902B831203131E08C3001A
:10072800C20183161E088312C2070318C30A0C13DA
:1007380073088A00720E8300FE0E7E0E09000330D5
:100748008A000408840A82070034543465346D34FE
:100758007034653472346134743475347234653489
:100768003A3400346434653467347234653465343B
:100778002034433400343C30F601F701F801F90124
:10078800831384004C300A128A11CE2383010A1283
:100798008A11492964008001840A04060319003477
:0407A8000406CF2B49
:02400E007A3FF7
:00000001FF
