:100000000A128A11222F00308A000408840A82070B
:1000100000344B34453459345034413444343A3448
:020020000034AA
:100E440083010A128A11262F831687018801F8303C
:100E5400860005140A128A11DE270A128A118030CC
:100E64000A128A11EC270A128A110730F3000130A2
:100E74000A128A114B270A128A11C0300A128A11E7
:100E8400EC270A128A110A128A115E270A128A11A1
:100E9400452FF400F501730875020318080075085E
:100EA400740784000A128A1103200A128A11CB27BC
:100EB4000A128A11F50A4D2F061486100611861D92
:100EC400692F3130CB270A128A118619672F061E23
:100ED400712F3430CB270A128A11061A6F2F861EFF
:100EE400792F3730CB270A128A11861A772F061FDB
:100EF400812F2A30CB270A128A11061B7F2F061056
:100F040086140611861D8C2F3230CB270A128A11C3
:100F140086198A2F061E942F3530CB270A128A1180
:100F2400061A922F861E9C2F3830CB270A128A115C
:100F3400861A9A2F061FA42F3030CB270A128A1143
:100F4400061BA22F061086100615861DAF2F333000
:100F5400CB270A128A118619AD2F061EB72F3630F9
:100F6400CB270A128A11061AB52F861EBF2F3930D5
:100F7400CB270A128A11861ABD2F061FC72F2330CA
:100F8400CB270A128A11061BC52F051C0800003046
:100F9400EC2FF200720887001A3008148810081524
:100FA400F100F830F000F00BD52FF10BD52F6400D1
:100FB40083120313081108003830EC270A128A112F
:100FC4000630EC270A128A110C30EC270A128A1117
:100FD4000130EC2FF2007208831287001A300810D7
:100FE40088100815F100F830F000F00BF72FF10B22
:0C0FF400F72F640083120313081108009B
:02400E007A3FF7
:00000001FF
