:100000000A128A118F2F00308A000408840A82079E
:10001000003445346D34623465346434643465349A
:1000200064340034533479347334743465346D3447
:0400300073340034F1
:100F1E0083010A128A11B52F3830A1270A128A11BD
:100F2E000630A1270A128A110C30A1270A128A1143
:100F3E000130A12FF2007208831287001A300810B8
:100F4E0088100815F100F830F000F00BAC2FF10B03
:100F5E00AC2F640083120313081108008316870157
:100F6E0088010A128A1193270A128A1183300A12F3
:100F7E008A11A1270A128A110830F30001300A12D1
:100F8E008A11DA270A128A11C3300A128A11A1278E
:100F9E000A128A110730F3000A300A128A11DA2770
:100FAE000A128A11BD2FF400F50173087502031899
:100FBE0008007508740784000A128A1103200A12A9
:100FCE008A11ED270A128A11F50ADC2FF200720837
:100FDE0087001A30081488100815F100F830F00058
:100FEE00F00BF72FF10BF72F640083120313081188
:020FFE000800E9
:02400E007A3FF7
:00000001FF
