:060000000A128A11122809
:10000800FE00030EF6000408F7000A08F800831241
:1000180003137F08F9000A128A1115280A128A1197
:10002800FC288B1C242801302F200A128A118330C7
:100038002F200A128A110B30F300013042208B1056
:100048007908FF0078088A0077088400760E830014
:10005800FE0E7E0E0900F200720887001A300810A2
:1000680088100815F100F830F000F00B3928F10B72
:10007800392864008312031308110800F400F501FD
:1000880073087502031808007508740784000A12BB
:100098008A11B7200A128A1155200A128A11F50A04
:1000A8004428F200720887001A30081488100815CE
:1000B800F100F830F000F00B5F28F10B5F286400C6
:1000C80083120313081108008316870188018B1710
:1000D8000B170B1601170A128A11DA200A128A1155
:1000E80083300A128A11E8200A128A110830A30004
:1000F8000D300A128A1191200A128A11C3300A128D
:100108008A11E8200A128A110730A30016300A1251
:100118008A1191200A128A117428A400A5012308C3
:100128002502031808002508240784000A128A11EA
:10013800B7200A128A11A4200A128A11A50A932844
:10014800A200220887001A30081488100815A10098
:10015800F830A000A00BAE28A10BAE2864008312D3
:1001680003130811080000308A000408840A820773
:10017800003469346E3474346534723472347534CE
:100188007034743465346434003445346D34623406
:1001980065346434643465346434003453347934F5
:1001A8007334743465346D34733400343830E82073
:1001B8000A128A110630E8200A128A110C30E82047
:1001C8000A128A110130E8288312A2002208870047
:1001D8001A30081088100815A100F830A000A00BEC
:1001E800F328A10BF32864008312031308110800F5
:0801F80083010A128A11682834
:02400E007A3FF7
:00000001FF
