:060000000A128A11552FBF
:100EAA0083134A30FD000730FE007A30FF003630E7
:100EBA0084000A128A116B270A128A1183010A1204
:100ECA008A118E2F7E088A007F0882000A128A11F0
:100EDA0067270A128A118000840A04087D0603190A
:100EEA000034FF0A0319FE0A6B2F3F34003406341C
:100EFA0000345B3400344F340034663400346D34CB
:100F0A0000347D340034073400347F3400346F34C5
:100F1A000034831603130714860120308400363008
:100F2A00F0000408F1001430F20070088400831302
:100F3A000008F300F00A7108840073088000F10ABF
:100F4A00F20B9A2FA82F83120313071CAD2FAE2F73
:100F5A00FA2FB401B5013508803AFF0080307F02CC
:100F6A00031DB92F0A303402031CBC2FBD2FBF2F1B
:100F7A00A82FA82F1530F2004B30F100D130F00025
:100F8A00F00BC52FF10BC52FF20BC52F640083128E
:100F9A0003133408F0007007203E8400831300080E
:100FAA0086001530F2004B30F100D130F000F00B22
:100FBA00DC2FF10BDC2FF20BDC2F640001308312E3
:100FCA000313B4070318B50A0030B5073508803A89
:100FDA00FF0080307F02031DF42F0A303402031C05
:100FEA00F72FF82FBF2FA82FA82FA82FA82FA82F89
:060FFA000A128A11002812
:02400E007A3FF7
:00000001FF
