:100000000A128A11AB2F00308A000408840A820782
:10001000003445344D34423444344534443444345B
:040020002034003454
:100F560083010A128A11DF2F831203138C1A1A08CF
:100F6600080024308316980090308312980067306A
:100F7600831699000800F300F401F5017208750262
:100F8600031DC72F7108740203180800740873073D
:100F960084000A128A1103200A128A11D8270A121B
:100FA6008A11F40A0319F50AC12FF00083120C1EE8
:100FB600D92F7008990008000A128A11B4270A125C
:100FC6008A110830F1000130F2010A128A11BE2797
:100FD6000A128A111530F8004B30F700D130F600AE
:100FE600F60BF32FF70BF32FF80BF32F64000A120F
:0A0FF6008A11AF270A128A11E42FB6
:02400E007A3FF7
:00000001FF
