:060000000A128A11B22F62
:100F640083010A128A11DE2FF000B82F83120313B3
:100F74000C1EBD2FBE2FB82FBF2F7008990008007C
:100F840024308316031398009030831203139800BF
:100F940067308316031399000800831203138C1E11
:100FA400D42FD52FDD2F1A08F0007008F100DD2FA3
:100FB400DD2F8C12DD2F08000A128A11C2270A12B3
:100FC4008A1161300A128A11B6270A128A11153061
:100FD400F4004B30F300D130F200F20BEF2FF30B9F
:100FE400EF2FF40BEF2F64000A128A11CF270A1295
:0C0FF4008A11E32FE32F0A128A11002853
:02400E007A3FF7
:00000001FF
