:060000000A128A11B02F64
:100F600083010A128A11D62F2430831603139800A6
:100F7000903083120313980067308316031399008F
:100F80000800F100C32F831203138C1EC82FC92F32
:100F9000C32F8C161A08F0007008F2007208710650
:100FA000031DD32FD42FC22FD52F08008316031370
:100FB0008601803087008B170B170A128A11B4271D
:100FC0000A128A118312031386140615E72F613063
:100FD0000A128A11C1270A128A118312031386107A
:100FE000061162300A128A11C1270A128A1183126D
:100FF000031386140615E72FE72F0A128A1100281B
:02400E007A3FF7
:00000001FF
